{
  "contractName": "Voting",
  "abi": [
    {
      "inputs": [
        {
          "internalType": "string",
          "name": "_ballotOfficialName",
          "type": "string"
        },
        {
          "internalType": "string",
          "name": "_proposal",
          "type": "string"
        }
      ],
      "stateMutability": "nonpayable",
      "type": "constructor"
    },
    {
      "anonymous": false,
      "inputs": [
        {
          "indexed": false,
          "internalType": "string",
          "name": "choice",
          "type": "string"
        }
      ],
      "name": "choiceAdded",
      "type": "event"
    },
    {
      "anonymous": false,
      "inputs": [
        {
          "indexed": false,
          "internalType": "address",
          "name": "voter",
          "type": "address"
        }
      ],
      "name": "voteDone",
      "type": "event"
    },
    {
      "anonymous": false,
      "inputs": [],
      "name": "voteEnded",
      "type": "event"
    },
    {
      "anonymous": false,
      "inputs": [],
      "name": "voteStarted",
      "type": "event"
    },
    {
      "anonymous": false,
      "inputs": [
        {
          "indexed": false,
          "internalType": "address",
          "name": "voter",
          "type": "address"
        }
      ],
      "name": "voterAdded",
      "type": "event"
    },
    {
      "inputs": [],
      "name": "ballotOfficialAddress",
      "outputs": [
        {
          "internalType": "address",
          "name": "",
          "type": "address"
        }
      ],
      "stateMutability": "view",
      "type": "function"
    },
    {
      "inputs": [],
      "name": "ballotOfficialName",
      "outputs": [
        {
          "internalType": "string",
          "name": "",
          "type": "string"
        }
      ],
      "stateMutability": "view",
      "type": "function"
    },
    {
      "inputs": [],
      "name": "choiceCount",
      "outputs": [
        {
          "internalType": "uint256",
          "name": "",
          "type": "uint256"
        }
      ],
      "stateMutability": "view",
      "type": "function"
    },
    {
      "inputs": [
        {
          "internalType": "uint256",
          "name": "",
          "type": "uint256"
        }
      ],
      "name": "choices",
      "outputs": [
        {
          "internalType": "string",
          "name": "",
          "type": "string"
        }
      ],
      "stateMutability": "view",
      "type": "function"
    },
    {
      "inputs": [],
      "name": "proposal",
      "outputs": [
        {
          "internalType": "string",
          "name": "",
          "type": "string"
        }
      ],
      "stateMutability": "view",
      "type": "function"
    },
    {
      "inputs": [
        {
          "internalType": "uint256",
          "name": "",
          "type": "uint256"
        }
      ],
      "name": "result",
      "outputs": [
        {
          "internalType": "string",
          "name": "",
          "type": "string"
        }
      ],
      "stateMutability": "view",
      "type": "function"
    },
    {
      "inputs": [],
      "name": "state",
      "outputs": [
        {
          "internalType": "enum Voting.State",
          "name": "",
          "type": "uint8"
        }
      ],
      "stateMutability": "view",
      "type": "function"
    },
    {
      "inputs": [],
      "name": "totalVote",
      "outputs": [
        {
          "internalType": "uint256",
          "name": "",
          "type": "uint256"
        }
      ],
      "stateMutability": "view",
      "type": "function"
    },
    {
      "inputs": [],
      "name": "totalVoter",
      "outputs": [
        {
          "internalType": "uint256",
          "name": "",
          "type": "uint256"
        }
      ],
      "stateMutability": "view",
      "type": "function"
    },
    {
      "inputs": [
        {
          "internalType": "address",
          "name": "",
          "type": "address"
        }
      ],
      "name": "voterRegister",
      "outputs": [
        {
          "internalType": "string",
          "name": "voterName",
          "type": "string"
        },
        {
          "internalType": "bool",
          "name": "voted",
          "type": "bool"
        }
      ],
      "stateMutability": "view",
      "type": "function"
    },
    {
      "inputs": [
        {
          "internalType": "string",
          "name": "_choice",
          "type": "string"
        }
      ],
      "name": "addChoice",
      "outputs": [],
      "stateMutability": "nonpayable",
      "type": "function"
    },
    {
      "inputs": [
        {
          "internalType": "address",
          "name": "_voterAddress",
          "type": "address"
        },
        {
          "internalType": "string",
          "name": "_voterName",
          "type": "string"
        }
      ],
      "name": "addVoter",
      "outputs": [],
      "stateMutability": "nonpayable",
      "type": "function"
    },
    {
      "inputs": [],
      "name": "startVote",
      "outputs": [],
      "stateMutability": "nonpayable",
      "type": "function"
    },
    {
      "inputs": [
        {
          "internalType": "string",
          "name": "_choice",
          "type": "string"
        }
      ],
      "name": "doVote",
      "outputs": [
        {
          "internalType": "bool",
          "name": "voted",
          "type": "bool"
        }
      ],
      "stateMutability": "nonpayable",
      "type": "function"
    },
    {
      "inputs": [],
      "name": "endVote",
      "outputs": [],
      "stateMutability": "nonpayable",
      "type": "function"
    },
    {
      "inputs": [
        {
          "internalType": "string",
          "name": "_choice",
          "type": "string"
        }
      ],
      "name": "getVote",
      "outputs": [
        {
          "internalType": "uint256",
          "name": "voteCount",
          "type": "uint256"
        }
      ],
      "stateMutability": "view",
      "type": "function"
    }
  ],
  "bytecode": "0x608060405260008055600060015560006002553480156200001f57600080fd5b5060405162001f5b38038062001f5b833981810160405281019062000045919062000273565b33600360006101000a81548173ffffffffffffffffffffffffffffffffffffffff021916908373ffffffffffffffffffffffffffffffffffffffff160217905550816004908162000097919062000543565b508060059081620000a9919062000543565b506000600a60006101000a81548160ff02191690836002811115620000d357620000d26200062a565b5b0217905550505062000659565b6000604051905090565b600080fd5b600080fd5b600080fd5b600080fd5b6000601f19601f8301169050919050565b7f4e487b7100000000000000000000000000000000000000000000000000000000600052604160045260246000fd5b6200014982620000fe565b810181811067ffffffffffffffff821117156200016b576200016a6200010f565b5b80604052505050565b600062000180620000e0565b90506200018e82826200013e565b919050565b600067ffffffffffffffff821115620001b157620001b06200010f565b5b620001bc82620000fe565b9050602081019050919050565b60005b83811015620001e9578082015181840152602081019050620001cc565b60008484015250505050565b60006200020c620002068462000193565b62000174565b9050828152602081018484840111156200022b576200022a620000f9565b5b62000238848285620001c9565b509392505050565b600082601f830112620002585762000257620000f4565b5b81516200026a848260208601620001f5565b91505092915050565b600080604083850312156200028d576200028c620000ea565b5b600083015167ffffffffffffffff811115620002ae57620002ad620000ef565b5b620002bc8582860162000240565b925050602083015167ffffffffffffffff811115620002e057620002df620000ef565b5b620002ee8582860162000240565b9150509250929050565b600081519050919050565b7f4e487b7100000000000000000000000000000000000000000000000000000000600052602260045260246000fd5b600060028204905060018216806200034b57607f821691505b60208210810362000361576200036062000303565b5b50919050565b60008190508160005260206000209050919050565b60006020601f8301049050919050565b600082821b905092915050565b600060088302620003cb7fffffffffffffffffffffffffffffffffffffffffffffffffffffffffffffffff826200038c565b620003d786836200038c565b95508019841693508086168417925050509392505050565b6000819050919050565b6000819050919050565b6000620004246200041e6200041884620003ef565b620003f9565b620003ef565b9050919050565b6000819050919050565b620004408362000403565b620004586200044f826200042b565b84845462000399565b825550505050565b600090565b6200046f62000460565b6200047c81848462000435565b505050565b5b81811015620004a4576200049860008262000465565b60018101905062000482565b5050565b601f821115620004f357620004bd8162000367565b620004c8846200037c565b81016020851015620004d8578190505b620004f0620004e7856200037c565b83018262000481565b50505b505050565b600082821c905092915050565b60006200051860001984600802620004f8565b1980831691505092915050565b600062000533838362000505565b9150826002028217905092915050565b6200054e82620002f8565b67ffffffffffffffff8111156200056a57620005696200010f565b5b62000576825462000332565b62000583828285620004a8565b600060209050601f831160018114620005bb5760008415620005a6578287015190505b620005b2858262000525565b86555062000622565b601f198416620005cb8662000367565b60005b82811015620005f557848901518255600182019150602085019450602081019050620005ce565b8683101562000615578489015162000611601f89168262000505565b8355505b6001600288020188555050505b505050505050565b7f4e487b7100000000000000000000000000000000000000000000000000000000600052602160045260246000fd5b6118f280620006696000396000f3fe608060405234801561001057600080fd5b50600436106101005760003560e01c8063af15408711610097578063d9e95a9811610066578063d9e95a981461028c578063de975d18146102a8578063f1cea4c7146102c6578063f6fd7fde146102e457610100565b8063af15408714610203578063b922394614610234578063baa40e5c1461023e578063c19d93fb1461026e57610100565b80635fa520bb116100d35780635fa520bb1461018d5780636332abc9146101a9578063753ec103146101c757806390949747146101e557610100565b8063240815b7146101055780633c5940591461012357806346f7374d146101535780634c0a6af014610183575b600080fd5b61010d610314565b60405161011a9190610ed9565b60405180910390f35b61013d60048036038101906101389190610f34565b61031a565b60405161014a9190610ff1565b60405180910390f35b61016d60048036038101906101689190611148565b6103ba565b60405161017a91906111ac565b60405180910390f35b61018b610628565b005b6101a760048036038101906101a29190611148565b61071d565b005b6101b161082e565b6040516101be9190610ed9565b60405180910390f35b6101cf610834565b6040516101dc9190610ff1565b60405180910390f35b6101ed6108c2565b6040516101fa9190611208565b60405180910390f35b61021d6004803603810190610218919061124f565b6108e8565b60405161022b92919061127c565b60405180910390f35b61023c6109a1565b005b61025860048036038101906102539190611148565b610aed565b6040516102659190610ed9565b60405180910390f35b610276610ba3565b6040516102839190611323565b60405180910390f35b6102a660048036038101906102a1919061133e565b610bb6565b005b6102b0610d40565b6040516102bd9190610ff1565b60405180910390f35b6102ce610dce565b6040516102db9190610ed9565b60405180910390f35b6102fe60048036038101906102f99190610f34565b610dd4565b60405161030b9190610ff1565b60405180910390f35b60025481565b60096020528060005260406000206000915090508054610339906113c9565b80601f0160208091040260200160405190810160405280929190818152602001828054610365906113c9565b80156103b25780601f10610387576101008083540402835291602001916103b2565b820191906000526020600020905b81548152906001019060200180831161039557829003601f168201915b505050505081565b600060018060028111156103d1576103d06112ac565b5b600a60009054906101000a900460ff1660028111156103f3576103f26112ac565b5b146103fd57600080fd5b600080600860003373ffffffffffffffffffffffffffffffffffffffff1673ffffffffffffffffffffffffffffffffffffffff168152602001908152602001600020600001805461044d906113c9565b9050141580156104aa5750600860003373ffffffffffffffffffffffffffffffffffffffff1673ffffffffffffffffffffffffffffffffffffffff16815260200190815260200160002060010160009054906101000a900460ff16155b156105e7576001600860003373ffffffffffffffffffffffffffffffffffffffff1673ffffffffffffffffffffffffffffffffffffffff16815260200190815260200160002060010160006101000a81548160ff021916908315150217905550610512610e74565b33816000019073ffffffffffffffffffffffffffffffffffffffff16908173ffffffffffffffffffffffffffffffffffffffff16815250508481602001819052508060076000600154815260200190815260200160002060008201518160000160006101000a81548173ffffffffffffffffffffffffffffffffffffffff021916908373ffffffffffffffffffffffffffffffffffffffff16021790555060208201518160010190816105c591906115a6565b50905050600160008154809291906105dc906116a7565b919050555060019150505b7f55c65cf9526efdf6c2252fe9757889dbd93e10172cad0f2edb1df619c88dbf7d336040516106169190611208565b60405180910390a18092505050919050565b600080600281111561063d5761063c6112ac565b5b600a60009054906101000a900460ff16600281111561065f5761065e6112ac565b5b1461066957600080fd5b600360009054906101000a900473ffffffffffffffffffffffffffffffffffffffff1673ffffffffffffffffffffffffffffffffffffffff163373ffffffffffffffffffffffffffffffffffffffff16146106c357600080fd5b6001600a60006101000a81548160ff021916908360028111156106e9576106e86112ac565b5b02179055507fd0dc01800a369fef30d3fced5275b8b916549867622e79efca5245c479fda4ea60405160405180910390a150565b6000806002811115610732576107316112ac565b5b600a60009054906101000a900460ff166002811115610754576107536112ac565b5b1461075e57600080fd5b600360009054906101000a900473ffffffffffffffffffffffffffffffffffffffff1673ffffffffffffffffffffffffffffffffffffffff163373ffffffffffffffffffffffffffffffffffffffff16146107b857600080fd5b8160066000600254815260200190815260200160002090816107da91906115a6565b50600260008154809291906107ee906116a7565b91905055507fba6b30eb3b7d3bc2fb7b79cfbce81c0bac85268f4fa985a5c5aa6f141fbf1465826040516108229190610ff1565b60405180910390a15050565b60005481565b60058054610841906113c9565b80601f016020809104026020016040519081016040528092919081815260200182805461086d906113c9565b80156108ba5780601f1061088f576101008083540402835291602001916108ba565b820191906000526020600020905b81548152906001019060200180831161089d57829003601f168201915b505050505081565b600360009054906101000a900473ffffffffffffffffffffffffffffffffffffffff1681565b600860205280600052604060002060009150905080600001805461090b906113c9565b80601f0160208091040260200160405190810160405280929190818152602001828054610937906113c9565b80156109845780601f1061095957610100808354040283529160200191610984565b820191906000526020600020905b81548152906001019060200180831161096757829003601f168201915b5050505050908060010160009054906101000a900460ff16905082565b60018060028111156109b6576109b56112ac565b5b600a60009054906101000a900460ff1660028111156109d8576109d76112ac565b5b146109e257600080fd5b600360009054906101000a900473ffffffffffffffffffffffffffffffffffffffff1673ffffffffffffffffffffffffffffffffffffffff163373ffffffffffffffffffffffffffffffffffffffff1614610a3c57600080fd5b6002600a60006101000a81548160ff02191690836002811115610a6257610a616112ac565b5b021790555060005b600154811015610abd5760076000828152602001908152602001600020600101600960008381526020019081526020016000209081610aa9919061171a565b508080610ab5906116a7565b915050610a6a565b507f0deeca6c5a4a24936ed5053feb119562545a36119b158ecd0bb902a689be2d6660405160405180910390a150565b60006002806002811115610b0457610b036112ac565b5b600a60009054906101000a900460ff166002811115610b2657610b256112ac565b5b14610b3057600080fd5b6000805b600154811015610b9857848051906020012060076000838152602001908152602001600020600101604051610b6991906118a5565b604051809103902003610b85578180610b81906116a7565b9250505b8080610b90906116a7565b915050610b34565b508092505050919050565b600a60009054906101000a900460ff1681565b6000806002811115610bcb57610bca6112ac565b5b600a60009054906101000a900460ff166002811115610bed57610bec6112ac565b5b14610bf757600080fd5b600360009054906101000a900473ffffffffffffffffffffffffffffffffffffffff1673ffffffffffffffffffffffffffffffffffffffff163373ffffffffffffffffffffffffffffffffffffffff1614610c5157600080fd5b610c59610ea4565b828160000181905250600081602001901515908115158152505080600860008673ffffffffffffffffffffffffffffffffffffffff1673ffffffffffffffffffffffffffffffffffffffff1681526020019081526020016000206000820151816000019081610cc891906115a6565b5060208201518160010160006101000a81548160ff021916908315150217905550905050600080815480929190610cfe906116a7565b91905055507fb9e5f9042e6c6eb94817f660cfa81afea9585e59d72bfc3348a2305cbd33e13384604051610d329190611208565b60405180910390a150505050565b60048054610d4d906113c9565b80601f0160208091040260200160405190810160405280929190818152602001828054610d79906113c9565b8015610dc65780601f10610d9b57610100808354040283529160200191610dc6565b820191906000526020600020905b815481529060010190602001808311610da957829003601f168201915b505050505081565b60015481565b60066020528060005260406000206000915090508054610df3906113c9565b80601f0160208091040260200160405190810160405280929190818152602001828054610e1f906113c9565b8015610e6c5780601f10610e4157610100808354040283529160200191610e6c565b820191906000526020600020905b815481529060010190602001808311610e4f57829003601f168201915b505050505081565b6040518060400160405280600073ffffffffffffffffffffffffffffffffffffffff168152602001606081525090565b6040518060400160405280606081526020016000151581525090565b6000819050919050565b610ed381610ec0565b82525050565b6000602082019050610eee6000830184610eca565b92915050565b6000604051905090565b600080fd5b600080fd5b610f1181610ec0565b8114610f1c57600080fd5b50565b600081359050610f2e81610f08565b92915050565b600060208284031215610f4a57610f49610efe565b5b6000610f5884828501610f1f565b91505092915050565b600081519050919050565b600082825260208201905092915050565b60005b83811015610f9b578082015181840152602081019050610f80565b60008484015250505050565b6000601f19601f8301169050919050565b6000610fc382610f61565b610fcd8185610f6c565b9350610fdd818560208601610f7d565b610fe681610fa7565b840191505092915050565b6000602082019050818103600083015261100b8184610fb8565b905092915050565b600080fd5b600080fd5b7f4e487b7100000000000000000000000000000000000000000000000000000000600052604160045260246000fd5b61105582610fa7565b810181811067ffffffffffffffff821117156110745761107361101d565b5b80604052505050565b6000611087610ef4565b9050611093828261104c565b919050565b600067ffffffffffffffff8211156110b3576110b261101d565b5b6110bc82610fa7565b9050602081019050919050565b82818337600083830152505050565b60006110eb6110e684611098565b61107d565b90508281526020810184848401111561110757611106611018565b5b6111128482856110c9565b509392505050565b600082601f83011261112f5761112e611013565b5b813561113f8482602086016110d8565b91505092915050565b60006020828403121561115e5761115d610efe565b5b600082013567ffffffffffffffff81111561117c5761117b610f03565b5b6111888482850161111a565b91505092915050565b60008115159050919050565b6111a681611191565b82525050565b60006020820190506111c1600083018461119d565b92915050565b600073ffffffffffffffffffffffffffffffffffffffff82169050919050565b60006111f2826111c7565b9050919050565b611202816111e7565b82525050565b600060208201905061121d60008301846111f9565b92915050565b61122c816111e7565b811461123757600080fd5b50565b60008135905061124981611223565b92915050565b60006020828403121561126557611264610efe565b5b60006112738482850161123a565b91505092915050565b600060408201905081810360008301526112968185610fb8565b90506112a5602083018461119d565b9392505050565b7f4e487b7100000000000000000000000000000000000000000000000000000000600052602160045260246000fd5b600381106112ec576112eb6112ac565b5b50565b60008190506112fd826112db565b919050565b600061130d826112ef565b9050919050565b61131d81611302565b82525050565b60006020820190506113386000830184611314565b92915050565b6000806040838503121561135557611354610efe565b5b60006113638582860161123a565b925050602083013567ffffffffffffffff81111561138457611383610f03565b5b6113908582860161111a565b9150509250929050565b7f4e487b7100000000000000000000000000000000000000000000000000000000600052602260045260246000fd5b600060028204905060018216806113e157607f821691505b6020821081036113f4576113f361139a565b5b50919050565b60008190508160005260206000209050919050565b60006020601f8301049050919050565b600082821b905092915050565b60006008830261145c7fffffffffffffffffffffffffffffffffffffffffffffffffffffffffffffffff8261141f565b611466868361141f565b95508019841693508086168417925050509392505050565b6000819050919050565b60006114a361149e61149984610ec0565b61147e565b610ec0565b9050919050565b6000819050919050565b6114bd83611488565b6114d16114c9826114aa565b84845461142c565b825550505050565b600090565b6114e66114d9565b6114f18184846114b4565b505050565b5b818110156115155761150a6000826114de565b6001810190506114f7565b5050565b601f82111561155a5761152b816113fa565b6115348461140f565b81016020851015611543578190505b61155761154f8561140f565b8301826114f6565b50505b505050565b600082821c905092915050565b600061157d6000198460080261155f565b1980831691505092915050565b6000611596838361156c565b9150826002028217905092915050565b6115af82610f61565b67ffffffffffffffff8111156115c8576115c761101d565b5b6115d282546113c9565b6115dd828285611519565b600060209050601f83116001811461161057600084156115fe578287015190505b611608858261158a565b865550611670565b601f19841661161e866113fa565b60005b8281101561164657848901518255600182019150602085019450602081019050611621565b86831015611663578489015161165f601f89168261156c565b8355505b6001600288020188555050505b505050505050565b7f4e487b7100000000000000000000000000000000000000000000000000000000600052601160045260246000fd5b60006116b282610ec0565b91507fffffffffffffffffffffffffffffffffffffffffffffffffffffffffffffffff82036116e4576116e3611678565b5b600182019050919050565b6000815490506116fe816113c9565b9050919050565b60008190508160005260206000209050919050565b818103611728575050611800565b611731826116ef565b67ffffffffffffffff81111561174a5761174961101d565b5b61175482546113c9565b61175f828285611519565b6000601f83116001811461178e576000841561177c578287015490505b611786858261158a565b8655506117f9565b601f19841661179c87611705565b96506117a7866113fa565b60005b828110156117cf578489015482556001820191506001850194506020810190506117aa565b868310156117ec57848901546117e8601f89168261156c565b8355505b6001600288020188555050505b5050505050505b565b600081905092915050565b60008190508160005260206000209050919050565b6000815461182f816113c9565b6118398186611802565b9450600182166000811461185457600181146118695761189c565b60ff198316865281151582028601935061189c565b6118728561180d565b60005b8381101561189457815481890152600182019150602081019050611875565b838801955050505b50505092915050565b60006118b18284611822565b91508190509291505056fea264697066735822122078a8638117d766c0c129f3ab0a1d2c1301a8152b1770ca64af436cd44369095064736f6c63430008110033",
  "immutableReferences": {},
  "source": "// SPDX-License-Identifier: Unlicensed\r\n\r\npragma solidity >=0.7.0 <0.9.0;\r\n\r\ncontract Voting {\r\n    struct Vote {\r\n        address voterAddress;\r\n        string choice;\r\n    }\r\n\r\n    struct Voter {\r\n        string voterName;\r\n        bool voted;\r\n    }\r\n\r\n    uint256 public totalVoter = 0;\r\n    uint256 public totalVote = 0;\r\n    uint256 public choiceCount = 0;\r\n\r\n    address public ballotOfficialAddress;\r\n    string public ballotOfficialName;\r\n    string public proposal;\r\n\r\n    mapping(uint256 => string) public choices;\r\n    mapping(uint256 => Vote) private votes;\r\n    mapping(address => Voter) public voterRegister;\r\n    mapping(uint256 => string) public result;\r\n\r\n    enum State {\r\n        Created,\r\n        Voting,\r\n        Ended\r\n    }\r\n    State public state;\r\n\r\n    constructor(string memory _ballotOfficialName, string memory _proposal) {\r\n        ballotOfficialAddress = msg.sender;\r\n        ballotOfficialName = _ballotOfficialName;\r\n        proposal = _proposal;\r\n\r\n        state = State.Created;\r\n    }\r\n\r\n    modifier condition(bool _condition) {\r\n        require(_condition);\r\n        _;\r\n    }\r\n\r\n    modifier onlyOfficial() {\r\n        require(msg.sender == ballotOfficialAddress);\r\n        _;\r\n    }\r\n\r\n    modifier inState(State _state) {\r\n        require(state == _state);\r\n        _;\r\n    }\r\n\r\n    event voterAdded(address voter);\r\n    event choiceAdded(string choice);\r\n    event voteStarted();\r\n    event voteEnded();\r\n    event voteDone(address voter);\r\n\r\n    // Add Choice\r\n    function addChoice(string memory _choice)\r\n        public\r\n        inState(State.Created)\r\n        onlyOfficial\r\n    {\r\n        choices[choiceCount] = _choice;\r\n        choiceCount++;\r\n        emit choiceAdded(_choice);\r\n    }\r\n\r\n    // Add Voter\r\n    function addVoter(address _voterAddress, string memory _voterName)\r\n        public\r\n        inState(State.Created)\r\n        onlyOfficial\r\n    {\r\n        Voter memory v;\r\n        v.voterName = _voterName;\r\n        v.voted = false;\r\n        voterRegister[_voterAddress] = v;\r\n        totalVoter++;\r\n        emit voterAdded(_voterAddress);\r\n    }\r\n\r\n    // Declare voting starts now\r\n    function startVote() public inState(State.Created) onlyOfficial {\r\n        state = State.Voting;\r\n        emit voteStarted();\r\n    }\r\n\r\n    // Voters vote by indicating their choice\r\n    function doVote(string memory _choice)\r\n        public\r\n        inState(State.Voting)\r\n        returns (bool voted)\r\n    {\r\n        bool found = false;\r\n\r\n        if (\r\n            bytes(voterRegister[msg.sender].voterName).length != 0 &&\r\n            !voterRegister[msg.sender].voted\r\n        ) {\r\n            voterRegister[msg.sender].voted = true;\r\n            Vote memory v;\r\n            v.voterAddress = msg.sender;\r\n            v.choice = _choice;\r\n\r\n            votes[totalVote] = v;\r\n            totalVote++;\r\n\r\n            found = true;\r\n        }\r\n        emit voteDone(msg.sender);\r\n        return found;\r\n    }\r\n\r\n    // End Votes\r\n    function endVote() public inState(State.Voting) onlyOfficial {\r\n        state = State.Ended;\r\n\r\n        for (uint256 i = 0; i < totalVote; i++) {\r\n            result[i] = votes[i].choice;\r\n        }\r\n\r\n        emit voteEnded();\r\n    }\r\n\r\n    // Get Votes\r\n    function getVote(string memory _choice)\r\n        public\r\n        view\r\n        inState(State.Ended)\r\n        returns (uint256 voteCount)\r\n    {\r\n        uint256 count = 0;\r\n\r\n        for (uint256 i = 0; i < totalVote; i++) {\r\n            if (\r\n                keccak256(bytes(votes[i].choice)) == keccak256(bytes(_choice))\r\n            ) {\r\n                count++;\r\n            }\r\n        }\r\n\r\n        return count;\r\n    }\r\n}\r\n",
  "sourcePath": "G:\\junjie_onedrive\\OneDrive\\Voting-System\\src\\contracts\\Voting.sol",
  "compiler": {
    "name": "solc",
    "version": "0.8.17+commit.8df45f5f.Emscripten.clang"
  },
  "schemaVersion": "3.4.10",
  "updatedAt": "2022-10-26T11:25:15.146Z",
  "devdoc": {
    "kind": "dev",
    "methods": {},
    "version": 1
  },
  "userdoc": {
    "kind": "user",
    "methods": {},
    "version": 1
  }
}